{
  "abi": [
    {
      "inputs": [
        {
          "internalType": "address",
          "name": "_identityContractAddress",
          "type": "address"
        }
      ],
      "stateMutability": "nonpayable",
      "type": "constructor"
    },
    {
      "inputs": [],
      "name": "Unauthorized",
      "type": "error"
    },
    {
      "anonymous": false,
      "inputs": [
        {
          "indexed": false,
          "internalType": "address",
          "name": "_patientAddress",
          "type": "address"
        },
        {
          "indexed": false,
          "internalType": "bytes32",
          "name": "medicalRecordHash",
          "type": "bytes32"
        }
      ],
      "name": "MedicalRecordupdated",
      "type": "event"
    },
    {
      "anonymous": false,
      "inputs": [
        {
          "indexed": false,
          "internalType": "address",
          "name": "patientAddress",
          "type": "address"
        },
        {
          "indexed": false,
          "internalType": "uint256",
          "name": "mobileNumber",
          "type": "uint256"
        }
      ],
      "name": "NewPatient",
      "type": "event"
    },
    {
      "anonymous": false,
      "inputs": [
        {
          "indexed": false,
          "internalType": "address",
          "name": "_patientAddress",
          "type": "address"
        },
        {
          "indexed": false,
          "internalType": "string",
          "name": "_credentialType",
          "type": "string"
        }
      ],
      "name": "issuedCredential",
      "type": "event"
    },
    {
      "inputs": [
        {
          "internalType": "address",
          "name": "_patientAddress",
          "type": "address"
        },
        {
          "internalType": "string",
          "name": "_patientFullName",
          "type": "string"
        },
        {
          "internalType": "string",
          "name": "_dateOfbirth",
          "type": "string"
        },
        {
          "internalType": "string",
          "name": "_Email",
          "type": "string"
        },
        {
          "internalType": "uint256",
          "name": "_phoneNumber",
          "type": "uint256"
        },
        {
          "internalType": "string",
          "name": "_addressHome",
          "type": "string"
        },
        {
          "internalType": "string",
          "name": "_inssuranceID",
          "type": "string"
        },
        {
          "internalType": "bytes32",
          "name": "_medicalRecordHash",
          "type": "bytes32"
        },
        {
          "internalType": "string",
          "name": "_medicalID",
          "type": "string"
        },
        {
          "internalType": "bool",
          "name": "",
          "type": "bool"
        }
      ],
      "name": "addNewPatient",
      "outputs": [],
      "stateMutability": "nonpayable",
      "type": "function"
    },
    {
      "inputs": [],
      "name": "contractOwner",
      "outputs": [
        {
          "internalType": "address",
          "name": "",
          "type": "address"
        }
      ],
      "stateMutability": "view",
      "type": "function"
    },
    {
      "inputs": [
        {
          "internalType": "uint256",
          "name": "_phoneNumber",
          "type": "uint256"
        },
        {
          "internalType": "string",
          "name": "_credentialType",
          "type": "string"
        },
        {
          "internalType": "string",
          "name": "_credentialIssuer",
          "type": "string"
        },
        {
          "internalType": "string",
          "name": "_credentialValue",
          "type": "string"
        },
        {
          "internalType": "string",
          "name": "_dateIssued",
          "type": "string"
        }
      ],
      "name": "issueCredential",
      "outputs": [],
      "stateMutability": "nonpayable",
      "type": "function"
    },
    {
      "inputs": [
        {
          "internalType": "uint256",
          "name": "_phoneNumber",
          "type": "uint256"
        },
        {
          "internalType": "bytes32",
          "name": "_medicalRecordHash",
          "type": "bytes32"
        }
      ],
      "name": "updatMedicalRecord",
      "outputs": [],
      "stateMutability": "nonpayable",
      "type": "function"
    },
    {
      "inputs": [
        {
          "internalType": "uint256",
          "name": "_phoneNumber",
          "type": "uint256"
        }
      ],
      "name": "viewIssuedCredential",
      "outputs": [],
      "stateMutability": "view",
      "type": "function"
    },
    {
      "inputs": [
        {
          "internalType": "uint256",
          "name": "_phoneNumber",
          "type": "uint256"
        }
      ],
      "name": "viewPatientInformation",
      "outputs": [
        {
          "internalType": "string",
          "name": "fullName",
          "type": "string"
        },
        {
          "internalType": "string",
          "name": "medicalID",
          "type": "string"
        }
      ],
      "stateMutability": "view",
      "type": "function"
    }
  ],
  "bytecode": "608060405234801561001057600080fd5b50604051610c5c380380610c5c83398101604081905261002f91610062565b60008054336001600160a01b031991821617909155600180549091166001600160a01b0392909216919091179055610092565b60006020828403121561007457600080fd5b81516001600160a01b038116811461008b57600080fd5b9392505050565b610bbb806100a16000396000f3fe608060405234801561001057600080fd5b50600436106100625760003560e01c80631992231f146100675780632ba9098e1461007c578063318464471461008f5780636af62ffb146100b9578063cd6c7adb146100cc578063ce606ee0146100df575b600080fd5b61007a610075366004610567565b6100fa565b005b61007a61008a366004610694565b6101b3565b6100a261009d366004610694565b610228565b6040516100b09291906106fd565b60405180910390f35b61007a6100c736600461072b565b6102a8565b61007a6100da3660046107e2565b61039e565b6000546040516001600160a01b0390911681526020016100b0565b600180546040516326ae4b9f60e21b81526001600160a01b0390911691639ab92e7c9161013b918e918e918e918e918e918e918e918e918e91600401610804565b600060405180830381600087803b15801561015557600080fd5b505af1158015610169573d6000803e3d6000fd5b505060408051338152602081018a90527f3dd4314017d9f6c5581d19944346325db480208ad0f77089ee15658ebc57e5cb935001905060405180910390a150505050505050505050565b60015460405163583eacb560e01b8152600481018390526001600160a01b039091169063583eacb590602401600060405180830381865afa1580156101fc573d6000803e3d6000fd5b505050506040513d6000823e601f3d908101601f19168201604052610224919081019061090d565b5050565b60015460405163596b6ed760e01b81526004810183905260609182916001600160a01b039091169063596b6ed790602401600060405180830381865afa158015610276573d6000803e3d6000fd5b505050506040513d6000823e601f3d908101601f1916820160405261029e9190810190610a8e565b9094909350915050565b336102bb6000546001600160a01b031690565b6001600160a01b0316146102e1576040516282b42960e81b815260040160405180910390fd5b60015460005460405163f351b7b760e01b81526001600160a01b039283169263f351b7b79261031e928a928a928a928a928a921690600401610af2565b600060405180830381600087803b15801561033857600080fd5b505af115801561034c573d6000803e3d6000fd5b50506000546040517f705ef52d8b7a5bf4948ff01b17a92822fb29a988b2d566f9864a8edf7a1a1a20935061038f92506001600160a01b03909116908790610b61565b60405180910390a15050505050565b60015460405163166746d360e11b815260048101849052602481018390526001600160a01b0390911690632cce8da690604401600060405180830381600087803b1580156103eb57600080fd5b505af11580156103ff573d6000803e3d6000fd5b505060408051338152602081018590527fc35cf8a260ffaaac181872f6927104e709c2127bf6351d6fdd684d05b632d4a7935001905060405180910390a15050565b6001600160a01b038116811461045657600080fd5b50565b803561046481610441565b919050565b634e487b7160e01b600052604160045260246000fd5b60405160a0810167ffffffffffffffff811182821017156104a2576104a2610469565b60405290565b604051601f8201601f1916810167ffffffffffffffff811182821017156104d1576104d1610469565b604052919050565b600067ffffffffffffffff8211156104f3576104f3610469565b50601f01601f191660200190565b600082601f83011261051257600080fd5b8135610525610520826104d9565b6104a8565b81815284602083860101111561053a57600080fd5b816020850160208301376000918101602001919091529392505050565b8035801515811461046457600080fd5b6000806000806000806000806000806101408b8d03121561058757600080fd5b6105908b610459565b995060208b013567ffffffffffffffff808211156105ad57600080fd5b6105b98e838f01610501565b9a5060408d01359150808211156105cf57600080fd5b6105db8e838f01610501565b995060608d01359150808211156105f157600080fd5b6105fd8e838f01610501565b985060808d0135975060a08d013591508082111561061a57600080fd5b6106268e838f01610501565b965060c08d013591508082111561063c57600080fd5b6106488e838f01610501565b955060e08d013594506101008d013591508082111561066657600080fd5b506106738d828e01610501565b9250506106836101208c01610557565b90509295989b9194979a5092959850565b6000602082840312156106a657600080fd5b5035919050565b60005b838110156106c85781810151838201526020016106b0565b50506000910152565b600081518084526106e98160208601602086016106ad565b601f01601f19169290920160200192915050565b60408152600061071060408301856106d1565b828103602084015261072281856106d1565b95945050505050565b600080600080600060a0868803121561074357600080fd5b85359450602086013567ffffffffffffffff8082111561076257600080fd5b61076e89838a01610501565b9550604088013591508082111561078457600080fd5b61079089838a01610501565b945060608801359150808211156107a657600080fd5b6107b289838a01610501565b935060808801359150808211156107c857600080fd5b506107d588828901610501565b9150509295509295909350565b600080604083850312156107f557600080fd5b50508035926020909101359150565b6001600160a01b038b168152610140602082018190526000906108298382018d6106d1565b9050828103604084015261083d818c6106d1565b90508281036060840152610851818b6106d1565b905088608084015282810360a084015261086b81896106d1565b905082810360c084015261087f81886106d1565b90508560e084015282810361010084015261089a81866106d1565b9150508215156101208301529b9a5050505050505050505050565b805161046481610441565b600082601f8301126108d157600080fd5b81516108df610520826104d9565b8181528460208386010111156108f457600080fd5b6109058260208301602087016106ad565b949350505050565b6000602080838503121561092057600080fd5b825167ffffffffffffffff8082111561093857600080fd5b818501915085601f83011261094c57600080fd5b81518181111561095e5761095e610469565b8060051b61096d8582016104a8565b918252838101850191858101908984111561098757600080fd5b86860192505b83831015610a81578251858111156109a457600080fd5b860160a0818c03601f190112156109bb5760008081fd5b6109c361047f565b6109ce8983016108b5565b8152604080830151888111156109e45760008081fd5b6109f28e8c838701016108c0565b8b8401525060608084015189811115610a0b5760008081fd5b610a198f8d838801016108c0565b8385015250608091508184015189811115610a345760008081fd5b610a428f8d838801016108c0565b82850152505060a083015188811115610a5b5760008081fd5b610a698e8c838701016108c0565b9183019190915250835250918601919086019061098d565b9998505050505050505050565b60008060408385031215610aa157600080fd5b825167ffffffffffffffff80821115610ab957600080fd5b610ac5868387016108c0565b93506020850151915080821115610adb57600080fd5b50610ae8858286016108c0565b9150509250929050565b86815260c060208201526000610b0b60c08301886106d1565b8281036040840152610b1d81886106d1565b90508281036060840152610b3181876106d1565b90508281036080840152610b4581866106d1565b91505060018060a01b03831660a0830152979650505050505050565b6001600160a01b0383168152604060208201819052600090610905908301846106d156fea26469706673582212203b67a6d6783e05b0dabbb5d612f7ebb2e2be91a3edd8361c9c461a2b010543e864736f6c63430008120033",
  "bytecodeSha1": "69a39be1af4543053343744c7cf2f51ca9fc0a66",
  "compiler": {
    "evm_version": "istanbul",
    "optimizer": {
      "enabled": true,
      "runs": 200
    },
    "version": "0.8.18+commit.87f61d96"
  },
  "contractName": "Issuer",
  "language": "Solidity",
  "natspec": {
    "kind": "dev",
    "methods": {},
    "version": 1
  },
  "opcodes": "PUSH1 0x80 PUSH1 0x40 MSTORE CALLVALUE DUP1 ISZERO PUSH2 0x10 JUMPI PUSH1 0x0 DUP1 REVERT JUMPDEST POP PUSH1 0x4 CALLDATASIZE LT PUSH2 0x62 JUMPI PUSH1 0x0 CALLDATALOAD PUSH1 0xE0 SHR DUP1 PUSH4 0x1992231F EQ PUSH2 0x67 JUMPI DUP1 PUSH4 0x2BA9098E EQ PUSH2 0x7C JUMPI DUP1 PUSH4 0x31846447 EQ PUSH2 0x8F JUMPI DUP1 PUSH4 0x6AF62FFB EQ PUSH2 0xB9 JUMPI DUP1 PUSH4 0xCD6C7ADB EQ PUSH2 0xCC JUMPI DUP1 PUSH4 0xCE606EE0 EQ PUSH2 0xDF JUMPI JUMPDEST PUSH1 0x0 DUP1 REVERT JUMPDEST PUSH2 0x7A PUSH2 0x75 CALLDATASIZE PUSH1 0x4 PUSH2 0x567 JUMP JUMPDEST PUSH2 0xFA JUMP JUMPDEST STOP JUMPDEST PUSH2 0x7A PUSH2 0x8A CALLDATASIZE PUSH1 0x4 PUSH2 0x694 JUMP JUMPDEST PUSH2 0x1B3 JUMP JUMPDEST PUSH2 0xA2 PUSH2 0x9D CALLDATASIZE PUSH1 0x4 PUSH2 0x694 JUMP JUMPDEST PUSH2 0x228 JUMP JUMPDEST PUSH1 0x40 MLOAD PUSH2 0xB0 SWAP3 SWAP2 SWAP1 PUSH2 0x6FD JUMP JUMPDEST PUSH1 0x40 MLOAD DUP1 SWAP2 SUB SWAP1 RETURN JUMPDEST PUSH2 0x7A PUSH2 0xC7 CALLDATASIZE PUSH1 0x4 PUSH2 0x72B JUMP JUMPDEST PUSH2 0x2A8 JUMP JUMPDEST PUSH2 0x7A PUSH2 0xDA CALLDATASIZE PUSH1 0x4 PUSH2 0x7E2 JUMP JUMPDEST PUSH2 0x39E JUMP JUMPDEST PUSH1 0x0 SLOAD PUSH1 0x40 MLOAD PUSH1 0x1 PUSH1 0x1 PUSH1 0xA0 SHL SUB SWAP1 SWAP2 AND DUP2 MSTORE PUSH1 0x20 ADD PUSH2 0xB0 JUMP JUMPDEST PUSH1 0x1 DUP1 SLOAD PUSH1 0x40 MLOAD PUSH4 0x26AE4B9F PUSH1 0xE2 SHL DUP2 MSTORE PUSH1 0x1 PUSH1 0x1 PUSH1 0xA0 SHL SUB SWAP1 SWAP2 AND SWAP2 PUSH4 0x9AB92E7C SWAP2 PUSH2 0x13B SWAP2 DUP15 SWAP2 DUP15 SWAP2 DUP15 SWAP2 DUP15 SWAP2 DUP15 SWAP2 DUP15 SWAP2 DUP15 SWAP2 DUP15 SWAP2 DUP15 SWAP2 PUSH1 0x4 ADD PUSH2 0x804 JUMP JUMPDEST PUSH1 0x0 PUSH1 0x40 MLOAD DUP1 DUP4 SUB DUP2 PUSH1 0x0 DUP8 DUP1 EXTCODESIZE ISZERO DUP1 ISZERO PUSH2 0x155 JUMPI PUSH1 0x0 DUP1 REVERT JUMPDEST POP GAS CALL ISZERO DUP1 ISZERO PUSH2 0x169 JUMPI RETURNDATASIZE PUSH1 0x0 DUP1 RETURNDATACOPY RETURNDATASIZE PUSH1 0x0 REVERT JUMPDEST POP POP PUSH1 0x40 DUP1 MLOAD CALLER DUP2 MSTORE PUSH1 0x20 DUP2 ADD DUP11 SWAP1 MSTORE PUSH32 0x3DD4314017D9F6C5581D19944346325DB480208AD0F77089EE15658EBC57E5CB SWAP4 POP ADD SWAP1 POP PUSH1 0x40 MLOAD DUP1 SWAP2 SUB SWAP1 LOG1 POP POP POP POP POP POP POP POP POP POP JUMP JUMPDEST PUSH1 0x1 SLOAD PUSH1 0x40 MLOAD PUSH4 0x583EACB5 PUSH1 0xE0 SHL DUP2 MSTORE PUSH1 0x4 DUP2 ADD DUP4 SWAP1 MSTORE PUSH1 0x1 PUSH1 0x1 PUSH1 0xA0 SHL SUB SWAP1 SWAP2 AND SWAP1 PUSH4 0x583EACB5 SWAP1 PUSH1 0x24 ADD PUSH1 0x0 PUSH1 0x40 MLOAD DUP1 DUP4 SUB DUP2 DUP7 GAS STATICCALL ISZERO DUP1 ISZERO PUSH2 0x1FC JUMPI RETURNDATASIZE PUSH1 0x0 DUP1 RETURNDATACOPY RETURNDATASIZE PUSH1 0x0 REVERT JUMPDEST POP POP POP POP PUSH1 0x40 MLOAD RETURNDATASIZE PUSH1 0x0 DUP3 RETURNDATACOPY PUSH1 0x1F RETURNDATASIZE SWAP1 DUP2 ADD PUSH1 0x1F NOT AND DUP3 ADD PUSH1 0x40 MSTORE PUSH2 0x224 SWAP2 SWAP1 DUP2 ADD SWAP1 PUSH2 0x90D JUMP JUMPDEST POP POP JUMP JUMPDEST PUSH1 0x1 SLOAD PUSH1 0x40 MLOAD PUSH4 0x596B6ED7 PUSH1 0xE0 SHL DUP2 MSTORE PUSH1 0x4 DUP2 ADD DUP4 SWAP1 MSTORE PUSH1 0x60 SWAP2 DUP3 SWAP2 PUSH1 0x1 PUSH1 0x1 PUSH1 0xA0 SHL SUB SWAP1 SWAP2 AND SWAP1 PUSH4 0x596B6ED7 SWAP1 PUSH1 0x24 ADD PUSH1 0x0 PUSH1 0x40 MLOAD DUP1 DUP4 SUB DUP2 DUP7 GAS STATICCALL ISZERO DUP1 ISZERO PUSH2 0x276 JUMPI RETURNDATASIZE PUSH1 0x0 DUP1 RETURNDATACOPY RETURNDATASIZE PUSH1 0x0 REVERT JUMPDEST POP POP POP POP PUSH1 0x40 MLOAD RETURNDATASIZE PUSH1 0x0 DUP3 RETURNDATACOPY PUSH1 0x1F RETURNDATASIZE SWAP1 DUP2 ADD PUSH1 0x1F NOT AND DUP3 ADD PUSH1 0x40 MSTORE PUSH2 0x29E SWAP2 SWAP1 DUP2 ADD SWAP1 PUSH2 0xA8E JUMP JUMPDEST SWAP1 SWAP5 SWAP1 SWAP4 POP SWAP2 POP POP JUMP JUMPDEST CALLER PUSH2 0x2BB PUSH1 0x0 SLOAD PUSH1 0x1 PUSH1 0x1 PUSH1 0xA0 SHL SUB AND SWAP1 JUMP JUMPDEST PUSH1 0x1 PUSH1 0x1 PUSH1 0xA0 SHL SUB AND EQ PUSH2 0x2E1 JUMPI PUSH1 0x40 MLOAD PUSH3 0x82B429 PUSH1 0xE8 SHL DUP2 MSTORE PUSH1 0x4 ADD PUSH1 0x40 MLOAD DUP1 SWAP2 SUB SWAP1 REVERT JUMPDEST PUSH1 0x1 SLOAD PUSH1 0x0 SLOAD PUSH1 0x40 MLOAD PUSH4 0xF351B7B7 PUSH1 0xE0 SHL DUP2 MSTORE PUSH1 0x1 PUSH1 0x1 PUSH1 0xA0 SHL SUB SWAP3 DUP4 AND SWAP3 PUSH4 0xF351B7B7 SWAP3 PUSH2 0x31E SWAP3 DUP11 SWAP3 DUP11 SWAP3 DUP11 SWAP3 DUP11 SWAP3 DUP11 SWAP3 AND SWAP1 PUSH1 0x4 ADD PUSH2 0xAF2 JUMP JUMPDEST PUSH1 0x0 PUSH1 0x40 MLOAD DUP1 DUP4 SUB DUP2 PUSH1 0x0 DUP8 DUP1 EXTCODESIZE ISZERO DUP1 ISZERO PUSH2 0x338 JUMPI PUSH1 0x0 DUP1 REVERT JUMPDEST POP GAS CALL ISZERO DUP1 ISZERO PUSH2 0x34C JUMPI RETURNDATASIZE PUSH1 0x0 DUP1 RETURNDATACOPY RETURNDATASIZE PUSH1 0x0 REVERT JUMPDEST POP POP PUSH1 0x0 SLOAD PUSH1 0x40 MLOAD PUSH32 0x705EF52D8B7A5BF4948FF01B17A92822FB29A988B2D566F9864A8EDF7A1A1A20 SWAP4 POP PUSH2 0x38F SWAP3 POP PUSH1 0x1 PUSH1 0x1 PUSH1 0xA0 SHL SUB SWAP1 SWAP2 AND SWAP1 DUP8 SWAP1 PUSH2 0xB61 JUMP JUMPDEST PUSH1 0x40 MLOAD DUP1 SWAP2 SUB SWAP1 LOG1 POP POP POP POP POP JUMP JUMPDEST PUSH1 0x1 SLOAD PUSH1 0x40 MLOAD PUSH4 0x166746D3 PUSH1 0xE1 SHL DUP2 MSTORE PUSH1 0x4 DUP2 ADD DUP5 SWAP1 MSTORE PUSH1 0x24 DUP2 ADD DUP4 SWAP1 MSTORE PUSH1 0x1 PUSH1 0x1 PUSH1 0xA0 SHL SUB SWAP1 SWAP2 AND SWAP1 PUSH4 0x2CCE8DA6 SWAP1 PUSH1 0x44 ADD PUSH1 0x0 PUSH1 0x40 MLOAD DUP1 DUP4 SUB DUP2 PUSH1 0x0 DUP8 DUP1 EXTCODESIZE ISZERO DUP1 ISZERO PUSH2 0x3EB JUMPI PUSH1 0x0 DUP1 REVERT JUMPDEST POP GAS CALL ISZERO DUP1 ISZERO PUSH2 0x3FF JUMPI RETURNDATASIZE PUSH1 0x0 DUP1 RETURNDATACOPY RETURNDATASIZE PUSH1 0x0 REVERT JUMPDEST POP POP PUSH1 0x40 DUP1 MLOAD CALLER DUP2 MSTORE PUSH1 0x20 DUP2 ADD DUP6 SWAP1 MSTORE PUSH32 0xC35CF8A260FFAAAC181872F6927104E709C2127BF6351D6FDD684D05B632D4A7 SWAP4 POP ADD SWAP1 POP PUSH1 0x40 MLOAD DUP1 SWAP2 SUB SWAP1 LOG1 POP POP JUMP JUMPDEST PUSH1 0x1 PUSH1 0x1 PUSH1 0xA0 SHL SUB DUP2 AND DUP2 EQ PUSH2 0x456 JUMPI PUSH1 0x0 DUP1 REVERT JUMPDEST POP JUMP JUMPDEST DUP1 CALLDATALOAD PUSH2 0x464 DUP2 PUSH2 0x441 JUMP JUMPDEST SWAP2 SWAP1 POP JUMP JUMPDEST PUSH4 0x4E487B71 PUSH1 0xE0 SHL PUSH1 0x0 MSTORE PUSH1 0x41 PUSH1 0x4 MSTORE PUSH1 0x24 PUSH1 0x0 REVERT JUMPDEST PUSH1 0x40 MLOAD PUSH1 0xA0 DUP2 ADD PUSH8 0xFFFFFFFFFFFFFFFF DUP2 GT DUP3 DUP3 LT OR ISZERO PUSH2 0x4A2 JUMPI PUSH2 0x4A2 PUSH2 0x469 JUMP JUMPDEST PUSH1 0x40 MSTORE SWAP1 JUMP JUMPDEST PUSH1 0x40 MLOAD PUSH1 0x1F DUP3 ADD PUSH1 0x1F NOT AND DUP2 ADD PUSH8 0xFFFFFFFFFFFFFFFF DUP2 GT DUP3 DUP3 LT OR ISZERO PUSH2 0x4D1 JUMPI PUSH2 0x4D1 PUSH2 0x469 JUMP JUMPDEST PUSH1 0x40 MSTORE SWAP2 SWAP1 POP JUMP JUMPDEST PUSH1 0x0 PUSH8 0xFFFFFFFFFFFFFFFF DUP3 GT ISZERO PUSH2 0x4F3 JUMPI PUSH2 0x4F3 PUSH2 0x469 JUMP JUMPDEST POP PUSH1 0x1F ADD PUSH1 0x1F NOT AND PUSH1 0x20 ADD SWAP1 JUMP JUMPDEST PUSH1 0x0 DUP3 PUSH1 0x1F DUP4 ADD SLT PUSH2 0x512 JUMPI PUSH1 0x0 DUP1 REVERT JUMPDEST DUP2 CALLDATALOAD PUSH2 0x525 PUSH2 0x520 DUP3 PUSH2 0x4D9 JUMP JUMPDEST PUSH2 0x4A8 JUMP JUMPDEST DUP2 DUP2 MSTORE DUP5 PUSH1 0x20 DUP4 DUP7 ADD ADD GT ISZERO PUSH2 0x53A JUMPI PUSH1 0x0 DUP1 REVERT JUMPDEST DUP2 PUSH1 0x20 DUP6 ADD PUSH1 0x20 DUP4 ADD CALLDATACOPY PUSH1 0x0 SWAP2 DUP2 ADD PUSH1 0x20 ADD SWAP2 SWAP1 SWAP2 MSTORE SWAP4 SWAP3 POP POP POP JUMP JUMPDEST DUP1 CALLDATALOAD DUP1 ISZERO ISZERO DUP2 EQ PUSH2 0x464 JUMPI PUSH1 0x0 DUP1 REVERT JUMPDEST PUSH1 0x0 DUP1 PUSH1 0x0 DUP1 PUSH1 0x0 DUP1 PUSH1 0x0 DUP1 PUSH1 0x0 DUP1 PUSH2 0x140 DUP12 DUP14 SUB SLT ISZERO PUSH2 0x587 JUMPI PUSH1 0x0 DUP1 REVERT JUMPDEST PUSH2 0x590 DUP12 PUSH2 0x459 JUMP JUMPDEST SWAP10 POP PUSH1 0x20 DUP12 ADD CALLDATALOAD PUSH8 0xFFFFFFFFFFFFFFFF DUP1 DUP3 GT ISZERO PUSH2 0x5AD JUMPI PUSH1 0x0 DUP1 REVERT JUMPDEST PUSH2 0x5B9 DUP15 DUP4 DUP16 ADD PUSH2 0x501 JUMP JUMPDEST SWAP11 POP PUSH1 0x40 DUP14 ADD CALLDATALOAD SWAP2 POP DUP1 DUP3 GT ISZERO PUSH2 0x5CF JUMPI PUSH1 0x0 DUP1 REVERT JUMPDEST PUSH2 0x5DB DUP15 DUP4 DUP16 ADD PUSH2 0x501 JUMP JUMPDEST SWAP10 POP PUSH1 0x60 DUP14 ADD CALLDATALOAD SWAP2 POP DUP1 DUP3 GT ISZERO PUSH2 0x5F1 JUMPI PUSH1 0x0 DUP1 REVERT JUMPDEST PUSH2 0x5FD DUP15 DUP4 DUP16 ADD PUSH2 0x501 JUMP JUMPDEST SWAP9 POP PUSH1 0x80 DUP14 ADD CALLDATALOAD SWAP8 POP PUSH1 0xA0 DUP14 ADD CALLDATALOAD SWAP2 POP DUP1 DUP3 GT ISZERO PUSH2 0x61A JUMPI PUSH1 0x0 DUP1 REVERT JUMPDEST PUSH2 0x626 DUP15 DUP4 DUP16 ADD PUSH2 0x501 JUMP JUMPDEST SWAP7 POP PUSH1 0xC0 DUP14 ADD CALLDATALOAD SWAP2 POP DUP1 DUP3 GT ISZERO PUSH2 0x63C JUMPI PUSH1 0x0 DUP1 REVERT JUMPDEST PUSH2 0x648 DUP15 DUP4 DUP16 ADD PUSH2 0x501 JUMP JUMPDEST SWAP6 POP PUSH1 0xE0 DUP14 ADD CALLDATALOAD SWAP5 POP PUSH2 0x100 DUP14 ADD CALLDATALOAD SWAP2 POP DUP1 DUP3 GT ISZERO PUSH2 0x666 JUMPI PUSH1 0x0 DUP1 REVERT JUMPDEST POP PUSH2 0x673 DUP14 DUP3 DUP15 ADD PUSH2 0x501 JUMP JUMPDEST SWAP3 POP POP PUSH2 0x683 PUSH2 0x120 DUP13 ADD PUSH2 0x557 JUMP JUMPDEST SWAP1 POP SWAP3 SWAP6 SWAP9 SWAP12 SWAP2 SWAP5 SWAP8 SWAP11 POP SWAP3 SWAP6 SWAP9 POP JUMP JUMPDEST PUSH1 0x0 PUSH1 0x20 DUP3 DUP5 SUB SLT ISZERO PUSH2 0x6A6 JUMPI PUSH1 0x0 DUP1 REVERT JUMPDEST POP CALLDATALOAD SWAP2 SWAP1 POP JUMP JUMPDEST PUSH1 0x0 JUMPDEST DUP4 DUP2 LT ISZERO PUSH2 0x6C8 JUMPI DUP2 DUP2 ADD MLOAD DUP4 DUP3 ADD MSTORE PUSH1 0x20 ADD PUSH2 0x6B0 JUMP JUMPDEST POP POP PUSH1 0x0 SWAP2 ADD MSTORE JUMP JUMPDEST PUSH1 0x0 DUP2 MLOAD DUP1 DUP5 MSTORE PUSH2 0x6E9 DUP2 PUSH1 0x20 DUP7 ADD PUSH1 0x20 DUP7 ADD PUSH2 0x6AD JUMP JUMPDEST PUSH1 0x1F ADD PUSH1 0x1F NOT AND SWAP3 SWAP1 SWAP3 ADD PUSH1 0x20 ADD SWAP3 SWAP2 POP POP JUMP JUMPDEST PUSH1 0x40 DUP2 MSTORE PUSH1 0x0 PUSH2 0x710 PUSH1 0x40 DUP4 ADD DUP6 PUSH2 0x6D1 JUMP JUMPDEST DUP3 DUP2 SUB PUSH1 0x20 DUP5 ADD MSTORE PUSH2 0x722 DUP2 DUP6 PUSH2 0x6D1 JUMP JUMPDEST SWAP6 SWAP5 POP POP POP POP POP JUMP JUMPDEST PUSH1 0x0 DUP1 PUSH1 0x0 DUP1 PUSH1 0x0 PUSH1 0xA0 DUP7 DUP9 SUB SLT ISZERO PUSH2 0x743 JUMPI PUSH1 0x0 DUP1 REVERT JUMPDEST DUP6 CALLDATALOAD SWAP5 POP PUSH1 0x20 DUP7 ADD CALLDATALOAD PUSH8 0xFFFFFFFFFFFFFFFF DUP1 DUP3 GT ISZERO PUSH2 0x762 JUMPI PUSH1 0x0 DUP1 REVERT JUMPDEST PUSH2 0x76E DUP10 DUP4 DUP11 ADD PUSH2 0x501 JUMP JUMPDEST SWAP6 POP PUSH1 0x40 DUP9 ADD CALLDATALOAD SWAP2 POP DUP1 DUP3 GT ISZERO PUSH2 0x784 JUMPI PUSH1 0x0 DUP1 REVERT JUMPDEST PUSH2 0x790 DUP10 DUP4 DUP11 ADD PUSH2 0x501 JUMP JUMPDEST SWAP5 POP PUSH1 0x60 DUP9 ADD CALLDATALOAD SWAP2 POP DUP1 DUP3 GT ISZERO PUSH2 0x7A6 JUMPI PUSH1 0x0 DUP1 REVERT JUMPDEST PUSH2 0x7B2 DUP10 DUP4 DUP11 ADD PUSH2 0x501 JUMP JUMPDEST SWAP4 POP PUSH1 0x80 DUP9 ADD CALLDATALOAD SWAP2 POP DUP1 DUP3 GT ISZERO PUSH2 0x7C8 JUMPI PUSH1 0x0 DUP1 REVERT JUMPDEST POP PUSH2 0x7D5 DUP9 DUP3 DUP10 ADD PUSH2 0x501 JUMP JUMPDEST SWAP2 POP POP SWAP3 SWAP6 POP SWAP3 SWAP6 SWAP1 SWAP4 POP JUMP JUMPDEST PUSH1 0x0 DUP1 PUSH1 0x40 DUP4 DUP6 SUB SLT ISZERO PUSH2 0x7F5 JUMPI PUSH1 0x0 DUP1 REVERT JUMPDEST POP POP DUP1 CALLDATALOAD SWAP3 PUSH1 0x20 SWAP1 SWAP2 ADD CALLDATALOAD SWAP2 POP JUMP JUMPDEST PUSH1 0x1 PUSH1 0x1 PUSH1 0xA0 SHL SUB DUP12 AND DUP2 MSTORE PUSH2 0x140 PUSH1 0x20 DUP3 ADD DUP2 SWAP1 MSTORE PUSH1 0x0 SWAP1 PUSH2 0x829 DUP4 DUP3 ADD DUP14 PUSH2 0x6D1 JUMP JUMPDEST SWAP1 POP DUP3 DUP2 SUB PUSH1 0x40 DUP5 ADD MSTORE PUSH2 0x83D DUP2 DUP13 PUSH2 0x6D1 JUMP JUMPDEST SWAP1 POP DUP3 DUP2 SUB PUSH1 0x60 DUP5 ADD MSTORE PUSH2 0x851 DUP2 DUP12 PUSH2 0x6D1 JUMP JUMPDEST SWAP1 POP DUP9 PUSH1 0x80 DUP5 ADD MSTORE DUP3 DUP2 SUB PUSH1 0xA0 DUP5 ADD MSTORE PUSH2 0x86B DUP2 DUP10 PUSH2 0x6D1 JUMP JUMPDEST SWAP1 POP DUP3 DUP2 SUB PUSH1 0xC0 DUP5 ADD MSTORE PUSH2 0x87F DUP2 DUP9 PUSH2 0x6D1 JUMP JUMPDEST SWAP1 POP DUP6 PUSH1 0xE0 DUP5 ADD MSTORE DUP3 DUP2 SUB PUSH2 0x100 DUP5 ADD MSTORE PUSH2 0x89A DUP2 DUP7 PUSH2 0x6D1 JUMP JUMPDEST SWAP2 POP POP DUP3 ISZERO ISZERO PUSH2 0x120 DUP4 ADD MSTORE SWAP12 SWAP11 POP POP POP POP POP POP POP POP POP POP POP JUMP JUMPDEST DUP1 MLOAD PUSH2 0x464 DUP2 PUSH2 0x441 JUMP JUMPDEST PUSH1 0x0 DUP3 PUSH1 0x1F DUP4 ADD SLT PUSH2 0x8D1 JUMPI PUSH1 0x0 DUP1 REVERT JUMPDEST DUP2 MLOAD PUSH2 0x8DF PUSH2 0x520 DUP3 PUSH2 0x4D9 JUMP JUMPDEST DUP2 DUP2 MSTORE DUP5 PUSH1 0x20 DUP4 DUP7 ADD ADD GT ISZERO PUSH2 0x8F4 JUMPI PUSH1 0x0 DUP1 REVERT JUMPDEST PUSH2 0x905 DUP3 PUSH1 0x20 DUP4 ADD PUSH1 0x20 DUP8 ADD PUSH2 0x6AD JUMP JUMPDEST SWAP5 SWAP4 POP POP POP POP JUMP JUMPDEST PUSH1 0x0 PUSH1 0x20 DUP1 DUP4 DUP6 SUB SLT ISZERO PUSH2 0x920 JUMPI PUSH1 0x0 DUP1 REVERT JUMPDEST DUP3 MLOAD PUSH8 0xFFFFFFFFFFFFFFFF DUP1 DUP3 GT ISZERO PUSH2 0x938 JUMPI PUSH1 0x0 DUP1 REVERT JUMPDEST DUP2 DUP6 ADD SWAP2 POP DUP6 PUSH1 0x1F DUP4 ADD SLT PUSH2 0x94C JUMPI PUSH1 0x0 DUP1 REVERT JUMPDEST DUP2 MLOAD DUP2 DUP2 GT ISZERO PUSH2 0x95E JUMPI PUSH2 0x95E PUSH2 0x469 JUMP JUMPDEST DUP1 PUSH1 0x5 SHL PUSH2 0x96D DUP6 DUP3 ADD PUSH2 0x4A8 JUMP JUMPDEST SWAP2 DUP3 MSTORE DUP4 DUP2 ADD DUP6 ADD SWAP2 DUP6 DUP2 ADD SWAP1 DUP10 DUP5 GT ISZERO PUSH2 0x987 JUMPI PUSH1 0x0 DUP1 REVERT JUMPDEST DUP7 DUP7 ADD SWAP3 POP JUMPDEST DUP4 DUP4 LT ISZERO PUSH2 0xA81 JUMPI DUP3 MLOAD DUP6 DUP2 GT ISZERO PUSH2 0x9A4 JUMPI PUSH1 0x0 DUP1 REVERT JUMPDEST DUP7 ADD PUSH1 0xA0 DUP2 DUP13 SUB PUSH1 0x1F NOT ADD SLT ISZERO PUSH2 0x9BB JUMPI PUSH1 0x0 DUP1 DUP2 REVERT JUMPDEST PUSH2 0x9C3 PUSH2 0x47F JUMP JUMPDEST PUSH2 0x9CE DUP10 DUP4 ADD PUSH2 0x8B5 JUMP JUMPDEST DUP2 MSTORE PUSH1 0x40 DUP1 DUP4 ADD MLOAD DUP9 DUP2 GT ISZERO PUSH2 0x9E4 JUMPI PUSH1 0x0 DUP1 DUP2 REVERT JUMPDEST PUSH2 0x9F2 DUP15 DUP13 DUP4 DUP8 ADD ADD PUSH2 0x8C0 JUMP JUMPDEST DUP12 DUP5 ADD MSTORE POP PUSH1 0x60 DUP1 DUP5 ADD MLOAD DUP10 DUP2 GT ISZERO PUSH2 0xA0B JUMPI PUSH1 0x0 DUP1 DUP2 REVERT JUMPDEST PUSH2 0xA19 DUP16 DUP14 DUP4 DUP9 ADD ADD PUSH2 0x8C0 JUMP JUMPDEST DUP4 DUP6 ADD MSTORE POP PUSH1 0x80 SWAP2 POP DUP2 DUP5 ADD MLOAD DUP10 DUP2 GT ISZERO PUSH2 0xA34 JUMPI PUSH1 0x0 DUP1 DUP2 REVERT JUMPDEST PUSH2 0xA42 DUP16 DUP14 DUP4 DUP9 ADD ADD PUSH2 0x8C0 JUMP JUMPDEST DUP3 DUP6 ADD MSTORE POP POP PUSH1 0xA0 DUP4 ADD MLOAD DUP9 DUP2 GT ISZERO PUSH2 0xA5B JUMPI PUSH1 0x0 DUP1 DUP2 REVERT JUMPDEST PUSH2 0xA69 DUP15 DUP13 DUP4 DUP8 ADD ADD PUSH2 0x8C0 JUMP JUMPDEST SWAP2 DUP4 ADD SWAP2 SWAP1 SWAP2 MSTORE POP DUP4 MSTORE POP SWAP2 DUP7 ADD SWAP2 SWAP1 DUP7 ADD SWAP1 PUSH2 0x98D JUMP JUMPDEST SWAP10 SWAP9 POP POP POP POP POP POP POP POP POP JUMP JUMPDEST PUSH1 0x0 DUP1 PUSH1 0x40 DUP4 DUP6 SUB SLT ISZERO PUSH2 0xAA1 JUMPI PUSH1 0x0 DUP1 REVERT JUMPDEST DUP3 MLOAD PUSH8 0xFFFFFFFFFFFFFFFF DUP1 DUP3 GT ISZERO PUSH2 0xAB9 JUMPI PUSH1 0x0 DUP1 REVERT JUMPDEST PUSH2 0xAC5 DUP7 DUP4 DUP8 ADD PUSH2 0x8C0 JUMP JUMPDEST SWAP4 POP PUSH1 0x20 DUP6 ADD MLOAD SWAP2 POP DUP1 DUP3 GT ISZERO PUSH2 0xADB JUMPI PUSH1 0x0 DUP1 REVERT JUMPDEST POP PUSH2 0xAE8 DUP6 DUP3 DUP7 ADD PUSH2 0x8C0 JUMP JUMPDEST SWAP2 POP POP SWAP3 POP SWAP3 SWAP1 POP JUMP JUMPDEST DUP7 DUP2 MSTORE PUSH1 0xC0 PUSH1 0x20 DUP3 ADD MSTORE PUSH1 0x0 PUSH2 0xB0B PUSH1 0xC0 DUP4 ADD DUP9 PUSH2 0x6D1 JUMP JUMPDEST DUP3 DUP2 SUB PUSH1 0x40 DUP5 ADD MSTORE PUSH2 0xB1D DUP2 DUP9 PUSH2 0x6D1 JUMP JUMPDEST SWAP1 POP DUP3 DUP2 SUB PUSH1 0x60 DUP5 ADD MSTORE PUSH2 0xB31 DUP2 DUP8 PUSH2 0x6D1 JUMP JUMPDEST SWAP1 POP DUP3 DUP2 SUB PUSH1 0x80 DUP5 ADD MSTORE PUSH2 0xB45 DUP2 DUP7 PUSH2 0x6D1 JUMP JUMPDEST SWAP2 POP POP PUSH1 0x1 DUP1 PUSH1 0xA0 SHL SUB DUP4 AND PUSH1 0xA0 DUP4 ADD MSTORE SWAP8 SWAP7 POP POP POP POP POP POP POP JUMP JUMPDEST PUSH1 0x1 PUSH1 0x1 PUSH1 0xA0 SHL SUB DUP4 AND DUP2 MSTORE PUSH1 0x40 PUSH1 0x20 DUP3 ADD DUP2 SWAP1 MSTORE PUSH1 0x0 SWAP1 PUSH2 0x905 SWAP1 DUP4 ADD DUP5 PUSH2 0x6D1 JUMP INVALID LOG2 PUSH5 0x6970667358 0x22 SLT KECCAK256 EXTCODESIZE PUSH8 0xA6D6783E05B0DABB 0xB5 0xD6 SLT 0xF7 0xEB 0xB2 0xE2 0xBE SWAP2 LOG3 0xED 0xD8 CALLDATASIZE SHR SWAP13 CHAINID BYTE 0x2B ADD SDIV NUMBER 0xE8 PUSH5 0x736F6C6343 STOP ADDMOD SLT STOP CALLER ",
  "sha1": "500ada438453e635707f0afea926db86cf1b13c6",
  "source": "// SPDX-License-Identifier: GPL-3.0\n\npragma solidity ^0.8.17;\n\nimport \"./PatientIdentity.sol\";\n\ncontract Issuer  {\n\n    address private   ContractOwner;\n    PatientIdentity private identityContract;\n    constructor(address _identityContractAddress)  {\n        ContractOwner=msg.sender;\n        identityContract = PatientIdentity(_identityContractAddress);\n\n    }\n    function contractOwner() public view returns (address) {\n        return ContractOwner;\n    }\n     modifier onlyOwner() {\n        if(contractOwner()!= msg.sender)\n            revert Unauthorized();\n         _;\n     }\n\n     event NewPatient(address patientAddress, uint mobileNumber);\n    \n    // function to add a new patient to the blockchain\n      function addNewPatient(\n        address _patientAddress,\n        string memory _patientFullName,\n        string memory  _dateOfbirth,\n        string memory _Email,\n        uint _phoneNumber,\n        string memory _addressHome,\n        string memory _inssuranceID,\n        bytes32 _medicalRecordHash,\n        string memory _medicalID,\n        bool ) public  {\n        // create a new patient struct\n       identityContract.addPatient(_patientAddress, _patientFullName, _dateOfbirth, _Email, _phoneNumber, _addressHome, _inssuranceID, _medicalRecordHash, _medicalID,true );\n\n        // emit the NewPatient event\n       emit NewPatient(msg.sender, _phoneNumber);\n    }\n     event  MedicalRecordupdated(address _patientAddress, bytes32 medicalRecordHash);\n      function updatMedicalRecord(\n        uint _phoneNumber,\n        bytes32 _medicalRecordHash)\n        public  {\n       identityContract.updateMedicalRecord( _phoneNumber,_medicalRecordHash);\n      emit MedicalRecordupdated(msg.sender,_medicalRecordHash);\n   }\n\n    event issuedCredential(address _patientAddress, string _credentialType);\n\n    function issueCredential(\n        uint _phoneNumber,\n        string memory _credentialType,\n        string memory _credentialIssuer,\n        string memory _credentialValue,\n        string memory _dateIssued) public onlyOwner{\n        \n      identityContract.setCredential(_phoneNumber, _credentialType, _credentialIssuer, _credentialValue, _dateIssued, ContractOwner);\n      emit  issuedCredential( ContractOwner,  _credentialType);\n    }\n        function viewPatientInformation(\n          uint _phoneNumber\n          ) \n          public view returns (string memory fullName, string memory medicalID ) {\n       (fullName , medicalID)=identityContract.viewPatient(_phoneNumber);\n    }\n   function viewIssuedCredential( uint _phoneNumber ) public view  {\n    identityContract.getIssuedCredential(_phoneNumber);\n    }\n\n}\n\n",
  "sourcePath": "contracts/Issuer.sol",
  "type": "contract"
}