{
  "abi": [
    {
      "inputs": [
        {
          "internalType": "address",
          "name": "_identityContractAddress",
          "type": "address"
        }
      ],
      "stateMutability": "nonpayable",
      "type": "constructor"
    },
    {
      "inputs": [],
      "name": "Unauthorized",
      "type": "error"
    },
    {
      "anonymous": false,
      "inputs": [
        {
          "indexed": false,
          "internalType": "uint256",
          "name": "_phoneNumber",
          "type": "uint256"
        },
        {
          "indexed": false,
          "internalType": "bytes32",
          "name": "medicalRecordHash",
          "type": "bytes32"
        }
      ],
      "name": "MedicalRecordupdated",
      "type": "event"
    },
    {
      "anonymous": false,
      "inputs": [
        {
          "indexed": false,
          "internalType": "address",
          "name": "_provedAddress",
          "type": "address"
        }
      ],
      "name": "authorizedProver",
      "type": "event"
    },
    {
      "anonymous": false,
      "inputs": [
        {
          "indexed": false,
          "internalType": "address",
          "name": "_provedAddress",
          "type": "address"
        }
      ],
      "name": "revokedAuthorization",
      "type": "event"
    },
    {
      "inputs": [
        {
          "internalType": "address",
          "name": "_proverAddress",
          "type": "address"
        }
      ],
      "name": "authorizeProver",
      "outputs": [],
      "stateMutability": "nonpayable",
      "type": "function"
    },
    {
      "inputs": [],
      "name": "contractOwner",
      "outputs": [
        {
          "internalType": "address",
          "name": "",
          "type": "address"
        }
      ],
      "stateMutability": "view",
      "type": "function"
    },
    {
      "inputs": [],
      "name": "identityContract",
      "outputs": [
        {
          "internalType": "contract PatientIdentity",
          "name": "",
          "type": "address"
        }
      ],
      "stateMutability": "view",
      "type": "function"
    },
    {
      "inputs": [
        {
          "internalType": "address",
          "name": "_proverAddress",
          "type": "address"
        }
      ],
      "name": "revokeAuthorization",
      "outputs": [],
      "stateMutability": "nonpayable",
      "type": "function"
    },
    {
      "inputs": [
        {
          "internalType": "uint256",
          "name": "_phoneNumber",
          "type": "uint256"
        },
        {
          "internalType": "bytes32",
          "name": "_medicalRecordHash",
          "type": "bytes32"
        }
      ],
      "name": "updatePatientMedicalRecord",
      "outputs": [],
      "stateMutability": "nonpayable",
      "type": "function"
    },
    {
      "inputs": [
        {
          "internalType": "uint256",
          "name": "_phoneNumber",
          "type": "uint256"
        }
      ],
      "name": "viewMyCredential",
      "outputs": [],
      "stateMutability": "view",
      "type": "function"
    },
    {
      "inputs": [
        {
          "internalType": "uint256",
          "name": "_phoneNumber",
          "type": "uint256"
        }
      ],
      "name": "viewMyInformation",
      "outputs": [
        {
          "internalType": "string",
          "name": "fullName",
          "type": "string"
        },
        {
          "internalType": "string",
          "name": "medicalID",
          "type": "string"
        }
      ],
      "stateMutability": "view",
      "type": "function"
    }
  ],
  "bytecode": "608060405234801561001057600080fd5b506040516108ed3803806108ed83398101604081905261002f91610062565b60008054336001600160a01b031991821617909155600180549091166001600160a01b0392909216919091179055610092565b60006020828403121561007457600080fd5b81516001600160a01b038116811461008b57600080fd5b9392505050565b61084c806100a16000396000f3fe608060405234801561001057600080fd5b506004361061007d5760003560e01c8063765643ed1161005b578063765643ed146100e8578063b48028e3146100fb578063ce606ee01461010e578063d615e1f91461011f57600080fd5b8063655474401461008257806367031bae1461009757806367bf0c17146100c7575b600080fd5b610095610090366004610450565b610132565b005b6001546100aa906001600160a01b031681565b6040516001600160a01b0390911681526020015b60405180910390f35b6100da6100d5366004610450565b6101a7565b6040516100be9291906104b9565b6100956100f63660046104e7565b610227565b610095610109366004610521565b610303565b6000546001600160a01b03166100aa565b61009561012d366004610521565b6103ad565b60015460405163583eacb560e01b8152600481018390526001600160a01b039091169063583eacb590602401600060405180830381865afa15801561017b573d6000803e3d6000fd5b505050506040513d6000823e601f3d908101601f191682016040526101a39190810190610631565b5050565b60015460405163596b6ed760e01b81526004810183905260609182916001600160a01b039091169063596b6ed790602401600060405180830381865afa1580156101f5573d6000803e3d6000fd5b505050506040513d6000823e601f3d908101601f1916820160405261021d91908101906107b2565b9094909350915050565b3361023a6000546001600160a01b031690565b6001600160a01b031614610260576040516282b42960e81b815260040160405180910390fd5b60015460405163166746d360e11b815260048101849052602481018390526001600160a01b0390911690632cce8da690604401600060405180830381600087803b1580156102ad57600080fd5b505af11580156102c1573d6000803e3d6000fd5b505060408051858152602081018590527f42a0c2927f83453f2c318ec9cad7a19ae5590e4c328ac2acde868be14b4fa83b935001905060405180910390a15050565b600154600054604051633eb28f8560e21b81526001600160a01b039182166004820152838216602482015291169063faca3e1490604401600060405180830381600087803b15801561035457600080fd5b505af1158015610368573d6000803e3d6000fd5b50506040516001600160a01b03841681527f4334eff089150fe36889c6a843a81e41da8f7408f47e974e596cbefd439cc0fb925060200190505b60405180910390a150565b60015460005460405163247c1f4360e11b81526001600160a01b03918216600482015283821660248201529116906348f83e8690604401600060405180830381600087803b1580156103fe57600080fd5b505af1158015610412573d6000803e3d6000fd5b50506040516001600160a01b03841681527feeb52567506196ff22ca36500ac21bae066287911cfa5fa3858dcd2b25256226925060200190506103a2565b60006020828403121561046257600080fd5b5035919050565b60005b8381101561048457818101518382015260200161046c565b50506000910152565b600081518084526104a5816020860160208601610469565b601f01601f19169290920160200192915050565b6040815260006104cc604083018561048d565b82810360208401526104de818561048d565b95945050505050565b600080604083850312156104fa57600080fd5b50508035926020909101359150565b6001600160a01b038116811461051e57600080fd5b50565b60006020828403121561053357600080fd5b813561053e81610509565b9392505050565b634e487b7160e01b600052604160045260246000fd5b60405160a0810167ffffffffffffffff8111828210171561057e5761057e610545565b60405290565b604051601f8201601f1916810167ffffffffffffffff811182821017156105ad576105ad610545565b604052919050565b80516105c081610509565b919050565b600082601f8301126105d657600080fd5b815167ffffffffffffffff8111156105f0576105f0610545565b610603601f8201601f1916602001610584565b81815284602083860101111561061857600080fd5b610629826020830160208701610469565b949350505050565b6000602080838503121561064457600080fd5b825167ffffffffffffffff8082111561065c57600080fd5b818501915085601f83011261067057600080fd5b81518181111561068257610682610545565b8060051b610691858201610584565b91825283810185019185810190898411156106ab57600080fd5b86860192505b838310156107a5578251858111156106c857600080fd5b860160a0818c03601f190112156106df5760008081fd5b6106e761055b565b6106f28983016105b5565b8152604080830151888111156107085760008081fd5b6107168e8c838701016105c5565b8b840152506060808401518981111561072f5760008081fd5b61073d8f8d838801016105c5565b83850152506080915081840151898111156107585760008081fd5b6107668f8d838801016105c5565b82850152505060a08301518881111561077f5760008081fd5b61078d8e8c838701016105c5565b918301919091525083525091860191908601906106b1565b9998505050505050505050565b600080604083850312156107c557600080fd5b825167ffffffffffffffff808211156107dd57600080fd5b6107e9868387016105c5565b935060208501519150808211156107ff57600080fd5b5061080c858286016105c5565b915050925092905056fea2646970667358221220434c914c8ce6114ded68dc55245697d8a3d5afb915c29831ed5fb3a4e894961f64736f6c63430008120033",
  "bytecodeSha1": "d3e1629d105ac2d06682584ba75cdcb6e8833b6f",
  "compiler": {
    "evm_version": "istanbul",
    "optimizer": {
      "enabled": true,
      "runs": 200
    },
    "version": "0.8.18+commit.87f61d96"
  },
  "contractName": "PatientHolder",
  "language": "Solidity",
  "natspec": {
    "kind": "dev",
    "methods": {},
    "version": 1
  },
  "opcodes": "PUSH1 0x80 PUSH1 0x40 MSTORE CALLVALUE DUP1 ISZERO PUSH2 0x10 JUMPI PUSH1 0x0 DUP1 REVERT JUMPDEST POP PUSH1 0x4 CALLDATASIZE LT PUSH2 0x7D JUMPI PUSH1 0x0 CALLDATALOAD PUSH1 0xE0 SHR DUP1 PUSH4 0x765643ED GT PUSH2 0x5B JUMPI DUP1 PUSH4 0x765643ED EQ PUSH2 0xE8 JUMPI DUP1 PUSH4 0xB48028E3 EQ PUSH2 0xFB JUMPI DUP1 PUSH4 0xCE606EE0 EQ PUSH2 0x10E JUMPI DUP1 PUSH4 0xD615E1F9 EQ PUSH2 0x11F JUMPI PUSH1 0x0 DUP1 REVERT JUMPDEST DUP1 PUSH4 0x65547440 EQ PUSH2 0x82 JUMPI DUP1 PUSH4 0x67031BAE EQ PUSH2 0x97 JUMPI DUP1 PUSH4 0x67BF0C17 EQ PUSH2 0xC7 JUMPI JUMPDEST PUSH1 0x0 DUP1 REVERT JUMPDEST PUSH2 0x95 PUSH2 0x90 CALLDATASIZE PUSH1 0x4 PUSH2 0x450 JUMP JUMPDEST PUSH2 0x132 JUMP JUMPDEST STOP JUMPDEST PUSH1 0x1 SLOAD PUSH2 0xAA SWAP1 PUSH1 0x1 PUSH1 0x1 PUSH1 0xA0 SHL SUB AND DUP2 JUMP JUMPDEST PUSH1 0x40 MLOAD PUSH1 0x1 PUSH1 0x1 PUSH1 0xA0 SHL SUB SWAP1 SWAP2 AND DUP2 MSTORE PUSH1 0x20 ADD JUMPDEST PUSH1 0x40 MLOAD DUP1 SWAP2 SUB SWAP1 RETURN JUMPDEST PUSH2 0xDA PUSH2 0xD5 CALLDATASIZE PUSH1 0x4 PUSH2 0x450 JUMP JUMPDEST PUSH2 0x1A7 JUMP JUMPDEST PUSH1 0x40 MLOAD PUSH2 0xBE SWAP3 SWAP2 SWAP1 PUSH2 0x4B9 JUMP JUMPDEST PUSH2 0x95 PUSH2 0xF6 CALLDATASIZE PUSH1 0x4 PUSH2 0x4E7 JUMP JUMPDEST PUSH2 0x227 JUMP JUMPDEST PUSH2 0x95 PUSH2 0x109 CALLDATASIZE PUSH1 0x4 PUSH2 0x521 JUMP JUMPDEST PUSH2 0x303 JUMP JUMPDEST PUSH1 0x0 SLOAD PUSH1 0x1 PUSH1 0x1 PUSH1 0xA0 SHL SUB AND PUSH2 0xAA JUMP JUMPDEST PUSH2 0x95 PUSH2 0x12D CALLDATASIZE PUSH1 0x4 PUSH2 0x521 JUMP JUMPDEST PUSH2 0x3AD JUMP JUMPDEST PUSH1 0x1 SLOAD PUSH1 0x40 MLOAD PUSH4 0x583EACB5 PUSH1 0xE0 SHL DUP2 MSTORE PUSH1 0x4 DUP2 ADD DUP4 SWAP1 MSTORE PUSH1 0x1 PUSH1 0x1 PUSH1 0xA0 SHL SUB SWAP1 SWAP2 AND SWAP1 PUSH4 0x583EACB5 SWAP1 PUSH1 0x24 ADD PUSH1 0x0 PUSH1 0x40 MLOAD DUP1 DUP4 SUB DUP2 DUP7 GAS STATICCALL ISZERO DUP1 ISZERO PUSH2 0x17B JUMPI RETURNDATASIZE PUSH1 0x0 DUP1 RETURNDATACOPY RETURNDATASIZE PUSH1 0x0 REVERT JUMPDEST POP POP POP POP PUSH1 0x40 MLOAD RETURNDATASIZE PUSH1 0x0 DUP3 RETURNDATACOPY PUSH1 0x1F RETURNDATASIZE SWAP1 DUP2 ADD PUSH1 0x1F NOT AND DUP3 ADD PUSH1 0x40 MSTORE PUSH2 0x1A3 SWAP2 SWAP1 DUP2 ADD SWAP1 PUSH2 0x631 JUMP JUMPDEST POP POP JUMP JUMPDEST PUSH1 0x1 SLOAD PUSH1 0x40 MLOAD PUSH4 0x596B6ED7 PUSH1 0xE0 SHL DUP2 MSTORE PUSH1 0x4 DUP2 ADD DUP4 SWAP1 MSTORE PUSH1 0x60 SWAP2 DUP3 SWAP2 PUSH1 0x1 PUSH1 0x1 PUSH1 0xA0 SHL SUB SWAP1 SWAP2 AND SWAP1 PUSH4 0x596B6ED7 SWAP1 PUSH1 0x24 ADD PUSH1 0x0 PUSH1 0x40 MLOAD DUP1 DUP4 SUB DUP2 DUP7 GAS STATICCALL ISZERO DUP1 ISZERO PUSH2 0x1F5 JUMPI RETURNDATASIZE PUSH1 0x0 DUP1 RETURNDATACOPY RETURNDATASIZE PUSH1 0x0 REVERT JUMPDEST POP POP POP POP PUSH1 0x40 MLOAD RETURNDATASIZE PUSH1 0x0 DUP3 RETURNDATACOPY PUSH1 0x1F RETURNDATASIZE SWAP1 DUP2 ADD PUSH1 0x1F NOT AND DUP3 ADD PUSH1 0x40 MSTORE PUSH2 0x21D SWAP2 SWAP1 DUP2 ADD SWAP1 PUSH2 0x7B2 JUMP JUMPDEST SWAP1 SWAP5 SWAP1 SWAP4 POP SWAP2 POP POP JUMP JUMPDEST CALLER PUSH2 0x23A PUSH1 0x0 SLOAD PUSH1 0x1 PUSH1 0x1 PUSH1 0xA0 SHL SUB AND SWAP1 JUMP JUMPDEST PUSH1 0x1 PUSH1 0x1 PUSH1 0xA0 SHL SUB AND EQ PUSH2 0x260 JUMPI PUSH1 0x40 MLOAD PUSH3 0x82B429 PUSH1 0xE8 SHL DUP2 MSTORE PUSH1 0x4 ADD PUSH1 0x40 MLOAD DUP1 SWAP2 SUB SWAP1 REVERT JUMPDEST PUSH1 0x1 SLOAD PUSH1 0x40 MLOAD PUSH4 0x166746D3 PUSH1 0xE1 SHL DUP2 MSTORE PUSH1 0x4 DUP2 ADD DUP5 SWAP1 MSTORE PUSH1 0x24 DUP2 ADD DUP4 SWAP1 MSTORE PUSH1 0x1 PUSH1 0x1 PUSH1 0xA0 SHL SUB SWAP1 SWAP2 AND SWAP1 PUSH4 0x2CCE8DA6 SWAP1 PUSH1 0x44 ADD PUSH1 0x0 PUSH1 0x40 MLOAD DUP1 DUP4 SUB DUP2 PUSH1 0x0 DUP8 DUP1 EXTCODESIZE ISZERO DUP1 ISZERO PUSH2 0x2AD JUMPI PUSH1 0x0 DUP1 REVERT JUMPDEST POP GAS CALL ISZERO DUP1 ISZERO PUSH2 0x2C1 JUMPI RETURNDATASIZE PUSH1 0x0 DUP1 RETURNDATACOPY RETURNDATASIZE PUSH1 0x0 REVERT JUMPDEST POP POP PUSH1 0x40 DUP1 MLOAD DUP6 DUP2 MSTORE PUSH1 0x20 DUP2 ADD DUP6 SWAP1 MSTORE PUSH32 0x42A0C2927F83453F2C318EC9CAD7A19AE5590E4C328AC2ACDE868BE14B4FA83B SWAP4 POP ADD SWAP1 POP PUSH1 0x40 MLOAD DUP1 SWAP2 SUB SWAP1 LOG1 POP POP JUMP JUMPDEST PUSH1 0x1 SLOAD PUSH1 0x0 SLOAD PUSH1 0x40 MLOAD PUSH4 0x3EB28F85 PUSH1 0xE2 SHL DUP2 MSTORE PUSH1 0x1 PUSH1 0x1 PUSH1 0xA0 SHL SUB SWAP2 DUP3 AND PUSH1 0x4 DUP3 ADD MSTORE DUP4 DUP3 AND PUSH1 0x24 DUP3 ADD MSTORE SWAP2 AND SWAP1 PUSH4 0xFACA3E14 SWAP1 PUSH1 0x44 ADD PUSH1 0x0 PUSH1 0x40 MLOAD DUP1 DUP4 SUB DUP2 PUSH1 0x0 DUP8 DUP1 EXTCODESIZE ISZERO DUP1 ISZERO PUSH2 0x354 JUMPI PUSH1 0x0 DUP1 REVERT JUMPDEST POP GAS CALL ISZERO DUP1 ISZERO PUSH2 0x368 JUMPI RETURNDATASIZE PUSH1 0x0 DUP1 RETURNDATACOPY RETURNDATASIZE PUSH1 0x0 REVERT JUMPDEST POP POP PUSH1 0x40 MLOAD PUSH1 0x1 PUSH1 0x1 PUSH1 0xA0 SHL SUB DUP5 AND DUP2 MSTORE PUSH32 0x4334EFF089150FE36889C6A843A81E41DA8F7408F47E974E596CBEFD439CC0FB SWAP3 POP PUSH1 0x20 ADD SWAP1 POP JUMPDEST PUSH1 0x40 MLOAD DUP1 SWAP2 SUB SWAP1 LOG1 POP JUMP JUMPDEST PUSH1 0x1 SLOAD PUSH1 0x0 SLOAD PUSH1 0x40 MLOAD PUSH4 0x247C1F43 PUSH1 0xE1 SHL DUP2 MSTORE PUSH1 0x1 PUSH1 0x1 PUSH1 0xA0 SHL SUB SWAP2 DUP3 AND PUSH1 0x4 DUP3 ADD MSTORE DUP4 DUP3 AND PUSH1 0x24 DUP3 ADD MSTORE SWAP2 AND SWAP1 PUSH4 0x48F83E86 SWAP1 PUSH1 0x44 ADD PUSH1 0x0 PUSH1 0x40 MLOAD DUP1 DUP4 SUB DUP2 PUSH1 0x0 DUP8 DUP1 EXTCODESIZE ISZERO DUP1 ISZERO PUSH2 0x3FE JUMPI PUSH1 0x0 DUP1 REVERT JUMPDEST POP GAS CALL ISZERO DUP1 ISZERO PUSH2 0x412 JUMPI RETURNDATASIZE PUSH1 0x0 DUP1 RETURNDATACOPY RETURNDATASIZE PUSH1 0x0 REVERT JUMPDEST POP POP PUSH1 0x40 MLOAD PUSH1 0x1 PUSH1 0x1 PUSH1 0xA0 SHL SUB DUP5 AND DUP2 MSTORE PUSH32 0xEEB52567506196FF22CA36500AC21BAE066287911CFA5FA3858DCD2B25256226 SWAP3 POP PUSH1 0x20 ADD SWAP1 POP PUSH2 0x3A2 JUMP JUMPDEST PUSH1 0x0 PUSH1 0x20 DUP3 DUP5 SUB SLT ISZERO PUSH2 0x462 JUMPI PUSH1 0x0 DUP1 REVERT JUMPDEST POP CALLDATALOAD SWAP2 SWAP1 POP JUMP JUMPDEST PUSH1 0x0 JUMPDEST DUP4 DUP2 LT ISZERO PUSH2 0x484 JUMPI DUP2 DUP2 ADD MLOAD DUP4 DUP3 ADD MSTORE PUSH1 0x20 ADD PUSH2 0x46C JUMP JUMPDEST POP POP PUSH1 0x0 SWAP2 ADD MSTORE JUMP JUMPDEST PUSH1 0x0 DUP2 MLOAD DUP1 DUP5 MSTORE PUSH2 0x4A5 DUP2 PUSH1 0x20 DUP7 ADD PUSH1 0x20 DUP7 ADD PUSH2 0x469 JUMP JUMPDEST PUSH1 0x1F ADD PUSH1 0x1F NOT AND SWAP3 SWAP1 SWAP3 ADD PUSH1 0x20 ADD SWAP3 SWAP2 POP POP JUMP JUMPDEST PUSH1 0x40 DUP2 MSTORE PUSH1 0x0 PUSH2 0x4CC PUSH1 0x40 DUP4 ADD DUP6 PUSH2 0x48D JUMP JUMPDEST DUP3 DUP2 SUB PUSH1 0x20 DUP5 ADD MSTORE PUSH2 0x4DE DUP2 DUP6 PUSH2 0x48D JUMP JUMPDEST SWAP6 SWAP5 POP POP POP POP POP JUMP JUMPDEST PUSH1 0x0 DUP1 PUSH1 0x40 DUP4 DUP6 SUB SLT ISZERO PUSH2 0x4FA JUMPI PUSH1 0x0 DUP1 REVERT JUMPDEST POP POP DUP1 CALLDATALOAD SWAP3 PUSH1 0x20 SWAP1 SWAP2 ADD CALLDATALOAD SWAP2 POP JUMP JUMPDEST PUSH1 0x1 PUSH1 0x1 PUSH1 0xA0 SHL SUB DUP2 AND DUP2 EQ PUSH2 0x51E JUMPI PUSH1 0x0 DUP1 REVERT JUMPDEST POP JUMP JUMPDEST PUSH1 0x0 PUSH1 0x20 DUP3 DUP5 SUB SLT ISZERO PUSH2 0x533 JUMPI PUSH1 0x0 DUP1 REVERT JUMPDEST DUP2 CALLDATALOAD PUSH2 0x53E DUP2 PUSH2 0x509 JUMP JUMPDEST SWAP4 SWAP3 POP POP POP JUMP JUMPDEST PUSH4 0x4E487B71 PUSH1 0xE0 SHL PUSH1 0x0 MSTORE PUSH1 0x41 PUSH1 0x4 MSTORE PUSH1 0x24 PUSH1 0x0 REVERT JUMPDEST PUSH1 0x40 MLOAD PUSH1 0xA0 DUP2 ADD PUSH8 0xFFFFFFFFFFFFFFFF DUP2 GT DUP3 DUP3 LT OR ISZERO PUSH2 0x57E JUMPI PUSH2 0x57E PUSH2 0x545 JUMP JUMPDEST PUSH1 0x40 MSTORE SWAP1 JUMP JUMPDEST PUSH1 0x40 MLOAD PUSH1 0x1F DUP3 ADD PUSH1 0x1F NOT AND DUP2 ADD PUSH8 0xFFFFFFFFFFFFFFFF DUP2 GT DUP3 DUP3 LT OR ISZERO PUSH2 0x5AD JUMPI PUSH2 0x5AD PUSH2 0x545 JUMP JUMPDEST PUSH1 0x40 MSTORE SWAP2 SWAP1 POP JUMP JUMPDEST DUP1 MLOAD PUSH2 0x5C0 DUP2 PUSH2 0x509 JUMP JUMPDEST SWAP2 SWAP1 POP JUMP JUMPDEST PUSH1 0x0 DUP3 PUSH1 0x1F DUP4 ADD SLT PUSH2 0x5D6 JUMPI PUSH1 0x0 DUP1 REVERT JUMPDEST DUP2 MLOAD PUSH8 0xFFFFFFFFFFFFFFFF DUP2 GT ISZERO PUSH2 0x5F0 JUMPI PUSH2 0x5F0 PUSH2 0x545 JUMP JUMPDEST PUSH2 0x603 PUSH1 0x1F DUP3 ADD PUSH1 0x1F NOT AND PUSH1 0x20 ADD PUSH2 0x584 JUMP JUMPDEST DUP2 DUP2 MSTORE DUP5 PUSH1 0x20 DUP4 DUP7 ADD ADD GT ISZERO PUSH2 0x618 JUMPI PUSH1 0x0 DUP1 REVERT JUMPDEST PUSH2 0x629 DUP3 PUSH1 0x20 DUP4 ADD PUSH1 0x20 DUP8 ADD PUSH2 0x469 JUMP JUMPDEST SWAP5 SWAP4 POP POP POP POP JUMP JUMPDEST PUSH1 0x0 PUSH1 0x20 DUP1 DUP4 DUP6 SUB SLT ISZERO PUSH2 0x644 JUMPI PUSH1 0x0 DUP1 REVERT JUMPDEST DUP3 MLOAD PUSH8 0xFFFFFFFFFFFFFFFF DUP1 DUP3 GT ISZERO PUSH2 0x65C JUMPI PUSH1 0x0 DUP1 REVERT JUMPDEST DUP2 DUP6 ADD SWAP2 POP DUP6 PUSH1 0x1F DUP4 ADD SLT PUSH2 0x670 JUMPI PUSH1 0x0 DUP1 REVERT JUMPDEST DUP2 MLOAD DUP2 DUP2 GT ISZERO PUSH2 0x682 JUMPI PUSH2 0x682 PUSH2 0x545 JUMP JUMPDEST DUP1 PUSH1 0x5 SHL PUSH2 0x691 DUP6 DUP3 ADD PUSH2 0x584 JUMP JUMPDEST SWAP2 DUP3 MSTORE DUP4 DUP2 ADD DUP6 ADD SWAP2 DUP6 DUP2 ADD SWAP1 DUP10 DUP5 GT ISZERO PUSH2 0x6AB JUMPI PUSH1 0x0 DUP1 REVERT JUMPDEST DUP7 DUP7 ADD SWAP3 POP JUMPDEST DUP4 DUP4 LT ISZERO PUSH2 0x7A5 JUMPI DUP3 MLOAD DUP6 DUP2 GT ISZERO PUSH2 0x6C8 JUMPI PUSH1 0x0 DUP1 REVERT JUMPDEST DUP7 ADD PUSH1 0xA0 DUP2 DUP13 SUB PUSH1 0x1F NOT ADD SLT ISZERO PUSH2 0x6DF JUMPI PUSH1 0x0 DUP1 DUP2 REVERT JUMPDEST PUSH2 0x6E7 PUSH2 0x55B JUMP JUMPDEST PUSH2 0x6F2 DUP10 DUP4 ADD PUSH2 0x5B5 JUMP JUMPDEST DUP2 MSTORE PUSH1 0x40 DUP1 DUP4 ADD MLOAD DUP9 DUP2 GT ISZERO PUSH2 0x708 JUMPI PUSH1 0x0 DUP1 DUP2 REVERT JUMPDEST PUSH2 0x716 DUP15 DUP13 DUP4 DUP8 ADD ADD PUSH2 0x5C5 JUMP JUMPDEST DUP12 DUP5 ADD MSTORE POP PUSH1 0x60 DUP1 DUP5 ADD MLOAD DUP10 DUP2 GT ISZERO PUSH2 0x72F JUMPI PUSH1 0x0 DUP1 DUP2 REVERT JUMPDEST PUSH2 0x73D DUP16 DUP14 DUP4 DUP9 ADD ADD PUSH2 0x5C5 JUMP JUMPDEST DUP4 DUP6 ADD MSTORE POP PUSH1 0x80 SWAP2 POP DUP2 DUP5 ADD MLOAD DUP10 DUP2 GT ISZERO PUSH2 0x758 JUMPI PUSH1 0x0 DUP1 DUP2 REVERT JUMPDEST PUSH2 0x766 DUP16 DUP14 DUP4 DUP9 ADD ADD PUSH2 0x5C5 JUMP JUMPDEST DUP3 DUP6 ADD MSTORE POP POP PUSH1 0xA0 DUP4 ADD MLOAD DUP9 DUP2 GT ISZERO PUSH2 0x77F JUMPI PUSH1 0x0 DUP1 DUP2 REVERT JUMPDEST PUSH2 0x78D DUP15 DUP13 DUP4 DUP8 ADD ADD PUSH2 0x5C5 JUMP JUMPDEST SWAP2 DUP4 ADD SWAP2 SWAP1 SWAP2 MSTORE POP DUP4 MSTORE POP SWAP2 DUP7 ADD SWAP2 SWAP1 DUP7 ADD SWAP1 PUSH2 0x6B1 JUMP JUMPDEST SWAP10 SWAP9 POP POP POP POP POP POP POP POP POP JUMP JUMPDEST PUSH1 0x0 DUP1 PUSH1 0x40 DUP4 DUP6 SUB SLT ISZERO PUSH2 0x7C5 JUMPI PUSH1 0x0 DUP1 REVERT JUMPDEST DUP3 MLOAD PUSH8 0xFFFFFFFFFFFFFFFF DUP1 DUP3 GT ISZERO PUSH2 0x7DD JUMPI PUSH1 0x0 DUP1 REVERT JUMPDEST PUSH2 0x7E9 DUP7 DUP4 DUP8 ADD PUSH2 0x5C5 JUMP JUMPDEST SWAP4 POP PUSH1 0x20 DUP6 ADD MLOAD SWAP2 POP DUP1 DUP3 GT ISZERO PUSH2 0x7FF JUMPI PUSH1 0x0 DUP1 REVERT JUMPDEST POP PUSH2 0x80C DUP6 DUP3 DUP7 ADD PUSH2 0x5C5 JUMP JUMPDEST SWAP2 POP POP SWAP3 POP SWAP3 SWAP1 POP JUMP INVALID LOG2 PUSH5 0x6970667358 0x22 SLT KECCAK256 NUMBER 0x4C SWAP2 0x4C DUP13 0xE6 GT 0x4D 0xED PUSH9 0xDC55245697D8A3D5AF 0xB9 ISZERO 0xC2 SWAP9 BALANCE 0xED 0x5F 0xB3 LOG4 0xE8 SWAP5 SWAP7 0x1F PUSH5 0x736F6C6343 STOP ADDMOD SLT STOP CALLER ",
  "sha1": "fa6191e37ff8dd07f706930444b643992c16068a",
  "source": "// SPDX-License-Identifier: GPL-3.0\npragma solidity ^0.8.17;\nimport \"./PatientIdentity.sol\";\ncontract PatientHolder{\n    address private ContractOwner;\n    PatientIdentity public  identityContract;\n    constructor(address _identityContractAddress) {\n        ContractOwner = msg.sender;\n        identityContract = PatientIdentity(_identityContractAddress);\n    }\n\n        function contractOwner() public view returns (address) {\n        return ContractOwner;\n    }\n     modifier onlyOwner() {\n        if(contractOwner() != msg.sender)\n            revert Unauthorized();\n         _;\n     }\n    event  MedicalRecordupdated(uint _phoneNumber, bytes32 medicalRecordHash );\n      function updatePatientMedicalRecord(\n        uint _phoneNumber,\n      bytes32 _medicalRecordHash)\n        public  onlyOwner {\n        identityContract.updateMedicalRecord( _phoneNumber,_medicalRecordHash);\n        emit MedicalRecordupdated( _phoneNumber,_medicalRecordHash);\n   }\n   event  authorizedProver(address _provedAddress);\n    function authorizeProver(address _proverAddress) public {\n      identityContract.authorizeAccess(ContractOwner,_proverAddress);\n       emit  authorizedProver(_proverAddress);\n    }\n   event  revokedAuthorization(address _provedAddress);\n    function revokeAuthorization(address _proverAddress) public {\n      identityContract.revokeAccessAuthorization(ContractOwner,_proverAddress);\n        emit revokedAuthorization(_proverAddress);\n    }\n    function viewMyCredential(uint _phoneNumber) public view  {\n      identityContract.getIssuedCredential(_phoneNumber);\n    }\n    function viewMyInformation(\n          uint _phoneNumber\n          ) \n          public view returns (string memory fullName, string memory medicalID ) {\n       (fullName , medicalID)=identityContract.viewPatient(_phoneNumber);\n    }\n\n}\n",
  "sourcePath": "contracts/PatientHolder.sol",
  "type": "contract"
}